:100000000C9464010C948C010C948C010C948C0164
:100010000C948C010C948C010C948C010C948C012C
:100020000C948C010C948C010C948C010C948C011C
:100030000C948C010C948C010C948C010C948C010C
:100040000C94B3040C948C010C9475040C944F0420
:100050000C948C010C948C010C948C010C948C01EC
:100060000C948C010C948C01084AD73B3BCE016E5A
:1000700084BCBFFDC12F3D6C74319ABD56833DDAFF
:100080003D00C77F11BED9E4BB4C3E916BAAAABE0E
:10009000000000803F05A84CCDB2D44EB93836A937
:1000A000020C50B9918688083CA6AAAA2ABE000074
:1000B00000803F000000000023002600290000000F
:1000C0000000250028002B0000000000240027006D
:1000D0002A000404040404040404020202020202CA
:1000E00003030303030301020408102040800102FC
:1000F000040810200102040810205D7D0D0A007D17
:10010000005D007B226E616D65223A226461736836
:100110005F6261636B5F6672616D6573222C22762C
:10012000616C7565223A367D007B226E616D6522B9
:100130003A22635F726164697573222C2276616C66
:100140007565223A387D2C007B226E616D65223AFE
:1001500022616E616C6F675F726164697573222CD6
:100160002276616C7565223A387D2C007D2C005D0D
:10017000007B226E616D65223A226672616D657345
:10018000222C2276616C7565223A317D007D2C002F
:100190005D007B226E616D65223A22616E676C653F
:1001A000222C2276616C7565223A347D007B226EAA
:1001B000616D65223A22726164697573222C227620
:1001C000616C7565223A37327D2C007D2C005D0014
:1001D0007B226E616D65223A22616E676C655F6D90
:1001E0006178222C2276616C7565223A31397D0066
:1001F0007B226E616D65223A22616E676C655F6D70
:10020000696E222C2276616C7565223A367D2C004F
:100210007B226E616D65223A227261646975732278
:100220002C2276616C7565223A37357D2C007D2C49
:10023000005D007B226E616D65223A22635F616E14
:10024000676C65222C2276616C7565223A31377DA8
:10025000007B226E616D65223A22635F7261646980
:100260007573222C2276616C7565223A37397D2CA4
:10027000007B226E616D65223A22616E616C6F6750
:100280005F616E676C65222C2276616C7565223A1F
:10029000367D2C007B226E616D65223A22616E6193
:1002A0006C6F675F726164697573222C2276616C72
:1002B0007565223A37357D2C007B226E616D652293
:1002C0003A2200009F14920C11241FBECFEFD8E0F9
:1002D000DEBFCDBF25E0A6E2B4E001C01D92AD3780
:1002E000B207E1F714E0A0E0B1E0E4E0F6E302C019
:1002F00005900D92A632B107D9F711E0C3E6D1E01F
:1003000004C02197FE010E94CE18C236D107C9F75A
:100310000E949A0C0C94F51A0C940000CF92DF9274
:10032000EF92FF920F931F93CF93DF936C017A01AB
:100330008B01C0E0D0E0CE15DF0589F0D8016D91CA
:100340008D01D601ED91FC910190F081E02DC60167
:100350000995892B11F47E0102C02196ECCFC701CB
:10036000DF91CF911F910F91FF90EF90DF90CF9091
:100370000895089580E090E00895FC01538D448D28
:10038000252F30E0842F90E0821B930B541710F040
:10039000CF96089501970895FC01918D828D98174D
:1003A00061F0828DDF01A80FB11D5D968C91928D59
:1003B0009F5F9F73928F90E008958FEF9FEF089556
:1003C000FC01918D828D981731F0828DE80FF11D1F
:1003D000858D90E008958FEF9FEF0895FC01918D3A
:1003E000228D892F90E0805C9F4F821B91098F7333
:1003F0009927089589EB94E00E94EE0121E0892B72
:1004000009F420E0822F0895FC01848DDF01A80FFC
:10041000B11DA35ABF4F2C91848D90E001968F732C
:100420009927848FA689B7892C93A089B1898C914B
:1004300080648C93938D848D981306C00288F38911
:10044000E02D80818F7D80830895EF92FF920F933E
:100450001F93CF93DF93EC0181E0888F9B8D8C8D70
:10046000981305C0E889F989808185FD24C0F62E9E
:100470000B8D10E00F5F1F4F0F731127E02E8C8D37
:10048000E8120CC00FB607FCFACFE889F989808121
:1004900085FFF5CFCE010E940402F1CF8B8DFE01C6
:1004A000E80FF11DE35AFF4FF0820B8FEA89FB89B9
:1004B0008081806207C0EE89FF896083E889F989BD
:1004C00080818064808381E090E0DF91CF911F91F3
:1004D0000F91FF90EF900895CF93DF93EC01888DFB
:1004E0008823C9F0EA89FB89808185FD05C0A88938
:1004F000B9898C9186FD0FC00FB607FCF5CF8081BE
:1005000085FFF2CFA889B9898C9185FFEDCFCE0107
:100510000E940402E7CFDF91CF91089580E090E040
:10052000892B29F00E94FA0181110C940000089592
:10053000EF920F931F93F901DA012C913E2D309524
:1005400032233C9330813E293083FC01D80198E06E
:1005500080E030E020E04C914E2189F02A95D9F7D7
:1005600020E04C914E2159F02A95D9F720E84C9182
:100570004E2129F02A95D9F73A9561F717C047E03F
:100580004A95F1F7000031E0550F4C914E2109F0EA
:1005900051609A9529F45193839598E0681731F04A
:1005A00020E84C914E2111F72A95D9F71F910F9110
:1005B000EF9008950F931F93F9012081202B208342
:1005C000DA012C91202B2C9320814081202B30E0CC
:1005D00050E010E00095109504231523DC015D9197
:1005E00048E00083550F40F474E07A95F1F72083DA
:1005F0007AE07A95F1F705C07EE07A95F1F7000090
:1006000020834A9529F073E07A95F1F70000E9CF4D
:100610006A9529F071E07A95F1F70000E0CF72E079
:100620007A95F1F700000000008374E07A95F1F705
:100630000000000020831F910F910895AF92BF9298
:10064000CF92DF92EF92FF920F931F93CF93DF939E
:100650001F92CDB7DEB75C017B018B016C0184E09A
:10066000C80ED11CF80161918F01C50169830E94F8
:1006700010166981681719F0C5010E941816FFEF5E
:10068000AF1ABF0AAC14BD0469F7C7010F90DF9120
:10069000CF911F910F91FF90EF90DF90CF90BF907F
:1006A000AF9008950F931F93CF93DF93EC01888150
:1006B0009981009729F02A813B812617370788F412
:1006C0008B016F5F7F4F0E94011A009761F0998341
:1006D00088831B830A832C813D81232B11F4FC0129
:1006E000108281E001C080E0DF91CF911F910F91D6
:1006F0000895EF92FF920F931F93CF93DF93FC0126
:10070000248135816115710511F480E019C041150E
:100710005105A9F07B01EC018A01020F131FB801FA
:100720000E945203882389F3288139818C819D811D
:10073000B701820F931F0E94D41A1D830C8381E09E
:10074000DF91CF911F910F91FF90EF900895CF937C
:10075000DF93EC0188819981009711F00E9469195B
:10076000198218821D821C821B821A82DF91CF910E
:100770000895CF93DF93EC016115710561F0FB01E2
:1007800001900020E9F73197AF01461B570B0E94FB
:100790007903811103C0CE010E94A703CE01DF912E
:1007A000CF910895CF93DF93EC01FB0144815581F4
:1007B000608171810E947903811103C0CE010E9482
:1007C000A703CE01DF91CF910895EF92FF920F938F
:1007D0001F93CF93DF93EC01FB0186179707B9F0C6
:1007E000008111810115110539F0E480F580B70110
:1007F0000E945203811104C0CE010E94A70307C0CA
:10080000FD82EC82B801888199810E94D41ACE01C0
:10081000DF91CF911F910F91FF90EF900895FC0110
:10082000808191810C946919EF92FF920F931F932D
:10083000CF93DF93EC01198218821B821A821D82EA
:100840001C826115710521F18B01FB0101900020D3
:10085000E9F731977F01E61AF70AB7010E945203C0
:10086000811109C0CE01DF91CF911F910F91FF90AF
:10087000EF900C94A703FD82EC82B80188819981E6
:10088000DF91CF911F910F91FF90EF900C94D41AAC
:10089000DF91CF911F910F91FF90EF9008951F92DC
:1008A0000F920FB60F9211242F933F934F935F93A4
:1008B0006F937F938F939F93AF93BF93EF93FF9328
:1008C00089EB94E00E940402FF91EF91BF91AF91F8
:1008D0009F918F917F916F915F914F913F912F9158
:1008E0000F900FBE0F901F9018951F920F920FB68A
:1008F0000F9211242F938F939F93EF93FF93E09187
:10090000C904F091CA048081E091CF04F091D00431
:1009100082FD12C090818091D2048F5F8F732091ED
:10092000D304821751F0E091D204F0E0E754FB4F7A
:10093000958F8093D20401C08081FF91EF919F91A8
:100940008F912F910F900FBE0F901F9018952FB77A
:10095000F89460912B0470912C0480912D04909157
:100960002E042FBF08951F920F920FB60F921124DD
:100970002F933F938F939F93AF93BF9380912B04BB
:1009800090912C04A0912D04B0912E0430912A0452
:1009900023E0230F2D3720F40196A11DB11D05C0C2
:1009A00026E8230F0296A11DB11D20932A048093EF
:1009B0002B0490932C04A0932D04B0932E048091CB
:1009C000260490912704A0912804B091290401964F
:1009D000A11DB11D8093260490932704A0932804A1
:1009E000B0932904BF91AF919F918F913F912F9127
:1009F0000F900FBE0F901F9018955F926F927F928D
:100A00008F929F92AF92BF92CF92DF92EF92FF921E
:100A10000F931F93CF93DF934B01642F6901F02E47
:100A2000A82FB0E0FD01EA51FF4FE490FD01EE5226
:100A3000FF4FA491B0E0AA0FBB1FFD01E853FF4F89
:100A4000C591D491FD01E254FF4FA590B490FD01F2
:100A5000EC54FF4F659074905FB6F8940E2D95019D
:100A6000AE01C4010E94DA0283019501AE016F2D2F
:100A7000C6010E9498025FBEDF91CF911F910F9136
:100A8000FF90EF90DF90CF90BF90AF909F908F90AE
:100A90007F906F905F9008953F924F925F926F9218
:100AA0007F928F929F92AF92BF92CF92DF92EF92FE
:100AB000FF920F931F93CF93DF9300D01F92CDB778
:100AC000DEB72B013A01490190E0FC01EA51FF4FEA
:100AD000F490FC01EE52FF4F849190E0880F991F33
:100AE000FC01E853FF4FC590D490FC01E254FF4F46
:100AF000A590B490FC01EC54FF4F059114913FB6C2
:100B0000F89419821A821B82EF2C9501A60163E0EA
:100B1000CE0101960E9498028130B9F48981811139
:100B200009C00F2D9501A60163E0C2010E94DA02FF
:100B300081E02BC0813411F50F2D9501A6016AE0EB
:100B4000C3010E94DA0282E020C08330B9F48981B7
:100B50008034A1F48A81833089F40F2D9501A60198
:100B600068E0C4010E94DA028B818370813041F019
:100B7000823041F0833041F486E007C080E005C058
:100B800084E003C085E001C083E03FBE0F900F907A
:100B90000F90DF91CF911F910F91FF90EF90DF9019
:100BA000CF90BF90AF909F908F907F906F905F900D
:100BB0004F903F900895CF92DF92EF92FF920F9364
:100BC0001F93CF93DF93EB017B0124E0E20EF11C36
:100BD0008B016C01C61AD70AC601800F911F0E94B3
:100BE0001016F80181938F01EE15FF05A9F7CE01CC
:100BF000DF91CF911F910F91FF90EF90DF90CF90F9
:100C000008958F929F92AF92BF92CF92DF92EF9210
:100C1000FF920F931F93CF93DF93EC018FE291E04C
:100C20000E941F0B89EB94E00E94EE011816190632
:100C3000CCF78AEF90E0A0E0B0E08093BD04909301
:100C4000BE04A093BF04B093C0040E941D0CFC011D
:100C500097FD14C08D32910589F1C0970A9770F104
:100C6000EE32F10559F1E091B904F091BA04028431
:100C7000F385E02D89EB94E00995E7CF60E070E023
:100C8000CB01688379838A839B8388EE93E0A0E01D
:100C9000B0E08093BD049093BE04A093BF04B093D2
:100CA000C004DF91CF911F910F91FF90EF90DF90E3
:100CB000CF90BF90AF909F908F900895812C912CF2
:100CC00080E8A82E8FE3B82EC12CD12C760110E03D
:100CD00000E0E130F10569F1ED32F10539F1EE3274
:100CE000F10531F1CF01C0970A9718F5AAE0B0E0FD
:100CF000A70196010E9426166F01FF0FEE08FF085C
:100D0000C60ED71EE81EF91E80E3C81AD108E108F6
:100D1000F108112371F02DEC3CEC4CEC5DE3C501C6
:100D2000B4010E9452154B015C0103C001E001C0F7
:100D300011E0E091B904F091BA040284F385E02D4A
:100D400089EB94E009950E941D0CFC01C0970A975D
:100D500008F4BFCFEE32F10519F411111FC0B9CF5D
:100D6000E130F10509F4B5CF002341F0F094E094AF
:100D7000D094C094C11CD11CE11CF11C112349F07A
:100D8000C701B6010E94F314A50194010E945215F7
:100D900078CFC701B6010E94F31473CF0111E6CFDB
:100DA000EFCFCF93DF931F92CDB7DEB7609167048B
:100DB0006093000184E390E069830E9410166981CA
:100DC000681739F084E390E00F90DF91CF910C9495
:100DD00018160F90DF91CF9108956FE574E080E0D1
:100DE00090E00E941E036BE574E084E090E00E94B6
:100DF0001E0367E474E088E090E00E941E0363E451
:100E000074E080E190E00E941E0367E574E084E1F5
:100E100090E00E941E0363E574E088E190E00E9488
:100E20001E036FE474E08CE190E00E941E036BE40B
:100E300074E080E290E00E941E0367E374E08CE2BD
:100E400090E00E941E0363E374E080E390E00E9460
:100E50001E036FE374E084E290E00E941E036BE3E4
:100E600074E088E290E00C941E038DE491E00E940F
:100E70001F0B82E691E00E941B0C60915F04709151
:100E8000600480916104909162040E94440B80E7A9
:100E900091E00E941B0C60915B0470915C04809156
:100EA0005D0490915E040E94440B8EE791E00E94E5
:100EB0001B0C6091570470915804809159049091D3
:100EC0005A040E94440B8CE891E00E941B0C609134
:100ED00053047091540480915504909156040E94DB
:100EE000440B8AE991E00E941B0C60914F047091C1
:100EF000500480915104909152040E94440B87EA5F
:100F000091E00E941B0C60914B0470914C04809105
:100F10004D0490914E040E94440B84EB91E00E949A
:100F20001B0C609147047091480480914904909192
:100F30004A040E94440B81EC91E00E941B0C6091DA
:100F400043047091440480914504909146040E94AA
:100F5000440B8EEC91E00E941B0C60913F04709159
:100F6000400480914104909142040E94440B80EE21
:100F700091E00E941B0C60913B0470913C048091B5
:100F80003D0490913E040E94440B82EF91E00E9448
:100F90001B0C609137047091380480913904909152
:100FA0003A040E94440B84E092E00E941B0C609182
:100FB00033047091340480913504909136040E947A
:100FC000440B86E192E00C941F0BCF93DF93CDB7D7
:100FD000DEB72C970FB6F894DEBF0FBECDBF8FE201
:100FE00092E00E941F0B80916704811103C066E2AA
:100FF00072E002C06EE172E0CE0107960E94140416
:101000006CE372E0CE0101960E941404BE01695F98
:101010007F4FCE0101960E94D2030E94360BCE0173
:1010200001960E940F04CE0107960E940F04809142
:101030006604811103C066E272E002C06EE172E0F4
:10104000CE0107960E9414046EE472E0CE01019670
:101050000E941404BE01695F7F4FCE0101960E9479
:10106000D2030E94360BCE0101960E940F04CE01DE
:1010700007960E940F0480916504811103C066E207
:1010800072E002C06EE172E0CE0107960E94140485
:1010900063E672E0CE0101960E941404BE01695F0E
:1010A0007F4FCE0101960E94D2030E94360BCE01E3
:1010B00001960E940F04CE0107960E940F048091B2
:1010C0006404811103C066E272E002C06EE172E066
:1010D000CE0107960E9414046CE772E0CE010196DF
:1010E0000E941404BE01695F7F4FCE0101960E94E9
:1010F000D2030E94360BCE0101960E940F04CE014E
:1011000007960E940F0480916304811103C066E278
:1011100072E002C06EE172E0CE0107960E941404F4
:101120006CE872E0CE0101960E941404BE01695F72
:101130007F4FCE0101960E94D2030E94360BCE0152
:1011400001960E940F04CE0107960E940F048EE9BB
:1011500092E00E941F0B2C960FB6F894DEBF0FBED4
:10116000CDBFDF91CF91089586EA92E00E941F0BD8
:1011700083EB92E00E941F0B8AEC92E00C941F0B11
:101180004F925F926F927F928F929F92AF92BF9297
:10119000CF92DF92EF92FF929B01AC0160912F04FE
:1011A0007091300480913104909132040E9477163E
:1011B0006B017C0120E030E0A9010E941F18181685
:1011C00094F420E030E044E353E4C701B6010E9408
:1011D00077164B015C0120E030E0A9010E941F1846
:1011E00018160CF146C046015701B7FAB094B7F88B
:1011F000B09420E030E044E353E4C501B4010E9420
:1012000077162B013C0120E030E0A9010E941F1855
:101210001816CCF4A301920160E070E084E393E43B
:101220000E9477161EC0A501940160E070E084E37F
:1012300093E40E94771620E030E0A9010E941F1875
:10124000181684F183C020E030E044E353E4C50184
:10125000B4010E94771620E030E044E353E40E949A
:10126000781620E030E0A9010E941F1818168CF0B3
:101270006DC020E030E044E353E4C501B4010E94B6
:10128000781620E030E0A9010E941F18181654F0CB
:1012900066C020E030E0A901C701B6010E941F1816
:1012A0001816D4F420E030E044E353E4C701B6015B
:1012B0000E94771620E030E0A9010E941F1818163E
:1012C0002CF520E030E044E353E4C701B6010E946E
:1012D00077169B01AC0113C020E030E044E353E4F7
:1012E000C501B4010E9477164B015C0120E030E09B
:1012F000A9010E941F1818164CF4A501940160E082
:1013000070E084E393E40E94771670C020E030E040
:10131000A901C701B6010E941F1818163CF420E06D
:1013200030E044E353E4C701B60107C0C701B6018A
:10133000905820E030E044E353E40E94771620E028
:1013400030E044E353E40E94781650C020E030E0DF
:10135000A901C701B6010E941F181816D4F420E095
:1013600030E044E353E4C701B6010E94771620E061
:1013700030E0A9010E941F1818164CF520E030E05B
:1013800044E353E4C701B6010E9477169B01AC0108
:1013900017C0F7FAF094F7F8F09420E030E044E357
:1013A00053E4C701B6010E9477164B015C0120E0AF
:1013B00030E0A9010E941F1818164CF4A5019401F1
:1013C00060E070E084E393E40E9477160EC020E0B2
:1013D00030E044E353E4C701B6010E94771620E0F1
:1013E00030E044E353E40E9478169058FF90EF9069
:1013F000DF90CF90BF90AF909F908F907F906F9035
:101400005F904F9008954F925F926F927F928F926C
:101410009F92AF92BF92CF92DF92EF92FF92CF93C3
:101420004B015C0129013A019B01AC01C301B201EE
:101430000E9418170E94E41623E333E345E652E4C2
:101440000E9452156B017C0120E030E0A901C5012A
:10145000B4010E94EC1487FD04C020E030E0A90133
:1014600004C020E030E044E353E4C701B6010E9429
:1014700078166B017C0120E030E0A901C301B201C4
:101480000E94EC1487FF0AC0C1E020E030E0A9010F
:10149000C501B4010E941F1818160CF0C0E08C2F73
:1014A00090E048E651E0849F9001859F300D949F25
:1014B000300D1124B901330F880B990B0E94F314DE
:1014C0009B01AC01C701B6010E947816CF91FF9035
:1014D000EF90DF90CF90BF90AF909F908F907F90D4
:1014E0006F905F904F900895009769F0FC01019014
:1014F0000020E9F73197AF01481B590BBC0189EB7C
:1015000094E00C948E0180E090E008958F929F9279
:10151000AF92BF920F931F93CF93DF93CDB7DEB7F8
:10152000A1970FB6F894DEBF0FBECDBF19A242300F
:1015300008F44AE08E010F5D1F4F842E912CA12CE0
:10154000B12CA50194010E94AC18E62FB901CA0183
:1015500001501109EA3014F4E05D01C0E95CD801E2
:10156000EC93232B242B252B61F7C8010E94740ACE
:10157000A1960FB6F894DEBF0FBECDBFDF91CF911D
:101580001F910F91BF90AF909F908F9008950F93F0
:10159000CF93DF9300D01F92CDB7DEB78091630564
:1015A00090916405892BC1F09091650593FB992773
:1015B00090F98091780520E4298323E02A839B8396
:1015C00008E020E735E043E0BE016F5F7F4F0E94F7
:1015D000FD04883031F11EC080917805198203E046
:1015E00023E635E041E0BE016F5F7F4F0E94FD04BE
:1015F000833081F48091780591E499830AE026E6AE
:1016000035E041E0BE016F5F7F4F0E94FD048A30EC
:1016100059F20DC010926305109264051092650591
:1016200006C08091700585FDF5CF81E001C080E0A6
:101630000F900F900F90DF91CF910F910895CF935E
:10164000DF930E94740AEC0186E194E00E94740A20
:101650008C0F9D1FDF91CF910895FC01448155812E
:101660006081718189EB94E00C948E01CF93DF93BC
:101670000E942D0BEC0186E194E00E94740A8C0F0D
:101680009D1FDF91CF9108954F925F926F927F924D
:101690008F929F92AF92BF92CF92DF92EF92FF9282
:1016A0006B017C019B01AC010E947E18882319F01C
:1016B00089E194E01AC046015701E894B7F82FEF8A
:1016C0003FEF4FE75FE7C501B4010E947E1881112B
:1016D00010C02FEF3FEF4FE75FE7C501B4010E9455
:1016E000EC14181634F48DE194E00E94740A7C0125
:1016F0008FC02FEF3FEF4FE75FE4C701B6010E94B5
:101700001F1818161CF481E294E0EFCF2FEF3FEF83
:101710004FE75FECC701B6010E94EC1487FDF3CFE1
:1017200020E030E0A901C701B6010E94EC1487FF58
:1017300011C0E091B904F091BA040190F081E02D5C
:101740006DE289EB94E009955C01F7FAF094F7F803
:10175000F09402C0A12CB12C2AE037ED43EA5BE300
:10176000C701B6010E9478162B013C010E948A171E
:101770006B017C010E94F1149B01AC01C301B20119
:101780000E9477162B013C014AE0C701B6010E9476
:10179000860A7C01EA0CFB1CE091B904F091BA04C2
:1017A0000190F081E02D6EE289EB94E00995E80E5E
:1017B000F91E20E030E040E251E4C301B2010E9492
:1017C00052152B013C010E948A174B01A12CB12C10
:1017D0004AE0C501B4010E94860AE80EF91EC5015F
:1017E000B4010E94F1149B01AC01C301B2010E943B
:1017F000771620E030E040E251E40E9452150E944A
:101800008A1780E090E04AE00E94860AE80EF91EFE
:1018100086E194E00E94740A8E0D9F1DFF90EF9068
:10182000DF90CF90BF90AF909F908F907F906F9000
:101830005F904F9008950C94740A0F931F930E9429
:10184000A7046093C1047093C2048093C30490936F
:10185000C404E091B904F091BA040484F585E02D44
:1018600089EB94E0099597FF1FC00E94A70400919F
:10187000C1041091C2042091C3043091C404DC015E
:10188000CB01801B910BA20BB30B0091BD041091F7
:10189000BE042091BF043091C00480179107A207B5
:1018A000B307B8F28FEF9FEF1F910F9108950F9339
:1018B0001F93CF93DF93009711F480E025C0EC01D4
:1018C0000E94E3140097F9F020915A0530915B05CE
:1018D0008C01020F131FB80186E595E00E945203A8
:1018E000882359F3209156053091570580915A0568
:1018F00090915B05BE01820F931F0E94DC14109330
:101900005B0500935A0581E0DF91CF911F910F9104
:101910000895FC01448155816081718186E595E0DF
:101920000C94790386E595E00E940F048CE595E020
:101930000C940F04CF93DF93CDB7DEB7E0970FB6CB
:10194000F894DEBF0FBECDBF789484B5826084BDAD
:1019500084B5816084BD85B5826085BD85B58160B3
:1019600085BD80916E00816080936E001092810031
:1019700080918100826080938100809181008160EC
:1019800080938100809180008160809380008091AD
:10199000B10084608093B1008091B0008160809339
:1019A000B00080917A00846080937A0080917A0000
:1019B000826080937A0080917A00816080937A00BF
:1019C00080917A00806880937A001092C1000E9412
:1019D000C70A88E0E0E7F5E0DE01599601900D9234
:1019E0008A95E1F788E0FE017996DE015196019033
:1019F0000D928A95E1F788E0FE017196A9E9B4E0BD
:101A000001900D928A95E1F780919B048058809314
:101A10006A0480919C04805880936904E091C90411
:101A2000F091CA0482E08083E091C504F091C6047D
:101A30001082E091C704F091C8048FEC808310926B
:101A4000D104E091CD04F091CE0486E08083E09152
:101A5000CB04F091CC04808180618083E091CB0441
:101A6000F091CC04808188608083E091CB04F09178
:101A7000CC04808180688083E091CB04F091CC0419
:101A800080818F7D80830E94A704683E734081051A
:101A90009105F0F589EB94E00E94EE011816190605
:101AA00084F489EB94E00E94CC0189831A8241E09E
:101AB00050E0BE016F5F7F4F8CE595E00E94790397
:101AC000E9CF6CEE72E0CE0101960E941404809181
:101AD000600590916105892B81F000915C05109162
:101AE0005D0569817A81C8010E94DB1A009729F09F
:101AF0009C01201B310B890102C00FEF1FEFCE01AB
:101B000001960E940F0417FDBECF81E08093680408
:101B100084E390E00E9410168093000180FF03C0D0
:101B200091E09093670481FF03C091E09093660475
:101B300082FF03C091E09093650483FF03C091E0AE
:101B40009093640484FF03C081E0809363048091D8
:101B50006804882309F49BC169E070E086E595E09C
:101B60000E945203811105C086E595E00E94A703FB
:101B70000EC089E090E090935B0580935A0569EB75
:101B800072E080915605909157050E94DC1466EF33
:101B900072E0CE0101960E94140466EF72E0CE015D
:101BA00009960E94140468EF72E0CE0187960E94A5
:101BB00014041AA219A21CA21BA21EA21DA2BE01DD
:101BC000695D7F4FCE0181960E94E50369E073E075
:101BD000CE0181960E94B903BE01675F7F4F0E94CC
:101BE000D2036CE173E00E94B903BE016F5F7F4FC7
:101BF0000E94D2036EE273E00E94B9030E94890C36
:101C0000CE0181960E940F04CE0187960E940F0498
:101C1000CE0109960E940F04CE0101960E940F0486
:101C200080916704811103C066EE72E002C061EE2C
:101C300072E0CE0101960E94140468E373E0CE01C5
:101C400009960E941404BE016F5F7F4FCE01099672
:101C50000E94D20369E573E00E94B9030E94890CD7
:101C6000CE0109960E940F04CE0101960E940F0436
:101C700084E992E00E94570C81E792E00E94570CA1
:101C800081E592E00E94570C83E392E00E94570C9A
:101C900081E392E00E94570C8EE292E00E94570C82
:101CA00080916604811103C066EE72E002C061EEAD
:101CB00072E0CE0101960E94140465E673E0CE0145
:101CC00009960E941404BE016F5F7F4FCE010996F2
:101CD0000E94D20369E573E00E94B9030E94890C57
:101CE000CE0109960E940F04CE0101960E940F04B6
:101CF00080E192E00E94570C80EF91E00E94570C27
:101D000080ED91E00E94570C8EEC91E00E94570C00
:101D10008BEC91E00E94570C80916504811103C007
:101D200066EE72E002C061EE72E0CE0101960E94A2
:101D3000140469E873E0CE0109960E941404BE0100
:101D40006F5F7F4FCE0109960E94D20369E573E071
:101D50000E94B9030E94890CCE0109960E940F04CB
:101D6000CE0101960E940F048DEA91E00E94570C6B
:101D700082E991E00E94570C80E991E00E94570CA3
:101D80008DE891E00E94570C86E595E00E942D0BAE
:101D900080916404811103C066EE72E002C061EEBE
:101DA00072E0CE0101960E94140461EB73E0CE0153
:101DB00009960E941404BE016F5F7F4FCE01099601
:101DC0000E94D20369E573E00E94B903BC0186E575
:101DD00095E00E94E503CE0109960E940F04CE0112
:101DE00001960E940F0481E791E00E94570C8FE654
:101DF00091E00E94570C8CE691E00E94570C809174
:101E00006304811103C066EE72E002C061EE72E00D
:101E1000CE0101960E94140460ED73E0CE01099694
:101E20000E941404BE016F5F7F4FCE0109960E948D
:101E3000D20369E573E00E94B9030E94890CCE01C8
:101E400009960E940F04CE0101960E940F0488E4B7
:101E500091E00E94570C89E291E00E94570C83E0C8
:101E600091E00E94570C81E091E00E94570C8FEFA7
:101E700090E00E94570C8AEF90E00E94570C86E594
:101E800095E00E942D0B89EB94E00E946C026FE5B7
:101E900074E080E090E00E94DB056BE574E084E094
:101EA00090E00E94DB0567E474E088E090E00E9427
:101EB000DB0563E474E080E190E00E94DB0567E508
:101EC00074E084E190E00E94DB0563E574E088E162
:101ED00090E00E94DB056FE474E08CE190E00E94EA
:101EE000DB056BE474E080E290E00E94DB0567E3D1
:101EF00074E08CE290E00E94DB0563E374E080E331
:101F000090E00E94DB056FE374E084E290E00E94C1
:101F1000DB056BE374E088E290E00E94DB05209132
:101F20005B0430915C0440915D0450915E046091CB
:101F30005F047091600480916104909162040E943A
:101F4000030A6093790470937A0480937B049093DE
:101F50007C04209143043091440440914504509105
:101F6000460460914704709148048091490490911F
:101F70004A040E94030A6093750470937604809368
:101F80007704909378042091530430915404409145
:101F900055045091560460915704709158048091F3
:101FA000590490915A040E94030A6093710470933B
:101FB0007204809373049093740420914B043091C5
:101FC0004C0440914D0450914E0460914F04709127
:101FD000500480915104909152040E94030A60932E
:101FE0006D0470936E0480936F049093700420913D
:101FF000330430913404409135045091360460919B
:102000003704709138048091390490913A040E9409
:10201000030A60937D0470937E0480937F04909301
:10202000800420913B0430913C0440913D04509148
:102030003E0460913F04709140048091410490916E
:1020400042040E94030A6093810470938204809387
:1020500083049093840481EF93E00E941F0B01E0BE
:1020600085E1282E98E0F92E10E82EE0C22E39E402
:10207000E32E47EB342E54E3D52E89EB94E00E94F7
:10208000EE011816190664F40E94B4080093B8040F
:1020900007C089EB94E00E94EE01181619062CF097
:1020A0008091B8048111F5CFA0C089EB94E00E9423
:1020B000CC018093B7049091B6049130A1F020F048
:1020C000923009F440C0ECCF803341F0813341F7C6
:1020D0000E94350782E08093B604E2CF0E94E507B4
:1020E0000093B604DDCF8233C1F054F4803379F02D
:1020F0008133B1F68091660498279093660412C0EC
:102100008433D9F0A4F0853309F46AC0C9CF809133
:10211000670498279093670405C080916504982709
:10212000909365040E94D1060E94E507B9CF809183
:102130006404982790936404F5CF809163049827F2
:1021400090936304EFCF8733B1F194F4833351F16B
:102150004CF4813309F11CF5803309F0A1CF8FE5F0
:1021600094E037C0853309F11CF58FE494E031C069
:10217000823469F134F4893321F104F1813421F19D
:102180008FCF813609F11CF4833451F189CF823627
:10219000F1F0833629F184CF8BE594E01AC087E50E
:1021A00094E017C083E594E014C08BE494E011C080
:1021B00087E494E00EC083E494E00BC08FE394E0E6
:1021C00008C08BE394E005C087E394E002C083E39A
:1021D00094E00E9401060E94ED060E94350760CF40
:1021E0001092B6040E94B4085BCF0E94C70AE8E0D0
:1021F000F1E0A1EAB4E0822D01900D928A95E1F719
:10220000E0E7F5E0DE0119968F2D01900D928A9599
:10221000E1F7FE013996DE0111968F2D01900D92A6
:102220008A95E1F7FE013196A9E9B4E08F2D01907E
:102230000D928A95E1F760919B04605880916A0441
:10224000762E781A7092870420919C0420588091F1
:102250006904281B2093850440919D0440584093B5
:102260008E0480919E04805880938F04672D072CE4
:10227000000C770B77FF03C071956195710960932E
:102280008804622F022E000C770B77FF03C0719534
:102290006195710960938A04042E000C550B57FF59
:1022A00003C051954195510940936C04082E000CD0
:1022B000990B97FF03C091958195910980936B04C9
:1022C0002202B0011124972D9902600D711D112475
:1022D000072E000C880B990B28AB0E94F3140E9468
:1022E0003A184B015C0160939004709391048093C1
:1022F00092049093930428A9622F220F770B880BE6
:10230000990B0E94F3149B01AC01672D770C770B9E
:10231000880B990B28AB3DA74EA75FA70E94F3142B
:1023200028A93DA54EA55FA50E94030A2B013C01EB
:1023300060932F047093300480933104909332049F
:1023400020E030E040E85FE3C501B4010E941F18BF
:1023500018168CF523E333E345E652E4C301B201DA
:102360000E9418172B013C010E9413179B01AC011E
:10237000C501B4010E94521520E030E040E053E472
:102380000E9478160E948A1760939B04C301B201D1
:102390000E942C189B01AC01C501B4010E9452158A
:1023A00020E030E040E053E40E9478160E948A1753
:1023B00060939C0404C010939B0410939C04809130
:1023C0009804811164C280916704882309F48DC048
:1023D00020E030E046E952E460919004709191046D
:1023E00080919204909193040E941F1818160CF08B
:1023F0005AC06091790470917A0480917B04909125
:102400007C040E94C00820E030E040EC50E40E94D0
:10241000EC1487FF05C010939B048FEF80939C04FE
:10242000609175047091760480917704909178049E
:102430000E94C00820E030E040EC50E40E94EC1420
:1024400087FF05C08FEF80939B0410939C046091DD
:1024500071047091720480917304909174040E94CD
:10246000C00820E030E040EC50E40E94EC1487FF0C
:1024700004C010939B0400939C0460916D047091C0
:102480006E0480916F04909170040E94C00820E057
:1024900030E040EC50E40E94EC1487FF04C000934D
:1024A0009B0410939C0480916C0490916B048C3479
:1024B00068F0973158F420918E04121614F021E040
:1024C00001C02FEF20939D0410939E049C3468F06C
:1024D000873158F480918F04181614F081E001C000
:1024E0008FEF80939E0410939D048091660488234F
:1024F00009F4B3C020E030E046E952E46091900472
:102500007091910480919204909193040E941F18FD
:1025100018160CF0A2C06091790470917A04809131
:102520007B0490917C040E94C0084B015C0120E078
:1025300030E040EC50E40E941F181816ACF420E084
:1025400030E048E951E4C501B4010E94EC1487FF72
:102550000BC08091870418160CF4E9C189E68093BA
:102560009B048CEC80939C046091750470917604BC
:1025700080917704909178040E94C0084B015C011F
:1025800020E030E040EC50E40E941F181816ACF434
:1025900020E030E048E951E4C501B4010E94EC14A8
:1025A00087FF0BC08091850418160CF4C2C189E620
:1025B00080939C048CEC80939B04609171047091D7
:1025C000720480917304909174040E94C0084B01BE
:1025D0005C0120E030E040EC50E40E941F18181627
:1025E000A4F420E030E048E951E4C501B4010E94C0
:1025F000EC1487FF0AC08091870418160CF49BC165
:1026000089E680939B04D0929C0460916D04709144
:102610006E0480916F04909170040E94C0084B0179
:102620005C0120E030E040EC50E40E941F181816D6
:10263000A4F420E030E048E951E4C501B4010E946F
:10264000EC1487FF0AC08091850418160CF475C13C
:1026500089E680939C04D0929B0480916504B0909D
:102660009A04882309F453C09B2D907659F49091D5
:102670009F049B3438F49091A0049B3418F4B4FA6E
:10268000882780F980938604882309F440C08091CC
:10269000850487FF3CC020E030E040E952E46091CF
:1026A00090047091910480919204909193040E94FF
:1026B0001F18181664F5609181047091820480914E
:1026C0008304909184040E94C00820E030E040E838
:1026D00050E40E94EC1487FF04C0E0929C04E09256
:1026E0009B0460917D0470917E0480917F049091A1
:1026F00080040E94C00820E030E040E850E40E94DE
:10270000EC1487FF04C0E0929C0430929B048091FB
:102710006404882321F180918A048731F0F4909138
:102720008804973120F4809101018093890480917D
:1027300089041816A4F4815080938904903478F4A5
:1027400081E0973108F080E090918704899F802D87
:102750001124805880939B0402C0109289048091B8
:102760006304882309F455C020E030E040E051E4E0
:1027700060919004709191048091920490919304DF
:102780000E94EC1487FF04C010939B0410939C04D8
:1027900060918F0480918E046602B001112488023A
:1027A000600D711D1124072E000C880B990B0E94DF
:1027B000F3140E943A1820E030E040E051E40E9417
:1027C000EC1487FF04C010939D0410939E04B1FE87
:1027D00014C080918C0490918D04803D27E0920775
:1027E00060F420918B04211105C0019690938D0413
:1027F00080938C0420938B0404C010928D0410925B
:102800008C0480918B048C9D802D11248D5F80938E
:102810000101B2FE34C08091940490919504A0917E
:102820009604B0919704892B8A2B8B2B51F40E942C
:10283000A7046093940470939504809396049093F6
:10284000970480919804811117C00E94A70480907A
:10285000940490909504A0909604B0909704AB01D6
:10286000BC01481959096A097B0981E0453F51407B
:102870006105710508F480E08093980408C0109207
:102880009404109295041092960410929704E9E92A
:10289000F4E0AEEAB4E08F2D01900D928A95E1F755
:1028A0008091AE0485FD35C0BFB6F8942EEA34E0C1
:1028B00044EA54E061EA74E0809162050E944C05AC
:1028C000813051F42EEA34E044EA54E061EA74E0E5
:1028D000809162050E944C05823051F42EEA34E06A
:1028E00044EA54E061EA74E0809162050E944C057C
:1028F000BFBE833021F48091A304877F05C084305C
:1029000031F48091A30488608093A30402C08530D1
:1029100091F38091A30483FB882780F9909165054A
:1029200080FB93F9909365050E948E02A6CB87E900
:1029300016CE87E93DCE87E964CE87E98ACEE9EBFA
:10294000F4E01382128288EE93E0A0E0B0E084838A
:102950009583A683B78381E291E09183808385ECA0
:1029600090E09587848784EC90E09787868780EC59
:1029700090E0918B808B81EC90E0938B828B82EC4A
:1029800090E0958B848B86EC90E0978B868B118EF4
:10299000128E138E148E1092780581E0809362055A
:1029A00068E174E08CE595E00E94140468E174E04D
:1029B00086E595E00C941404FB01DC0105900D9272
:1029C0000020E1F70895FC0105900020E9F78095CB
:1029D00090958E0F9F1F08950E942E1508F481E098
:1029E0000895E89409C097FB3EF490958095709502
:1029F00061957F4F8F4F9F4F9923A9F0F92F96E94B
:102A0000BB279395F695879577956795B795F111BF
:102A1000F8CFFAF4BB0F11F460FF1BC06F5F7F4F5C
:102A20008F4F9F4F16C0882311F096E911C077236E
:102A300021F09EE8872F762F05C0662371F096E877
:102A4000862F70E060E02AF09A95660F771F881F46
:102A5000DAF7880F9695879597F90895990F0008EA
:102A6000550FAA0BE0E8FEEF16161706E807F90760
:102A7000C0F012161306E407F50798F0621B730BFB
:102A8000840B950B39F40A2661F0232B242B252B7C
:102A900021F408950A2609F4A140A6958FEF811D1F
:102AA000811D08950E9465150C94D6150E94C815C5
:102AB00038F00E94CF1520F0952311F00C94BF152B
:102AC0000C94C51511240C940A160E94E71570F396
:102AD000959FC1F3950F50E0551F629FF001729FC3
:102AE000BB27F00DB11D639FAA27F00DB11DAA1FD2
:102AF000649F6627B00DA11D661F829F2227B00D1F
:102B0000A11D621F739FB00DA11D621F839FA00DA9
:102B1000611D221F749F3327A00D611D231F849FF9
:102B2000600D211D822F762F6A2F11249F57504050
:102B30009AF0F1F088234AF0EE0FFF1FBB1F661FCB
:102B4000771F881F91505040A9F79E3F510580F094
:102B50000C94BF150C940A165F3FE4F3983ED4F32F
:102B6000869577956795B795F795E7959F5FC1F738
:102B7000FE2B880F911D9695879597F9089597F9E3
:102B80009F6780E870E060E008959FEF80EC089513
:102B900000240A941616170618060906089500243C
:102BA0000A9412161306140605060895092E0394B6
:102BB000000C11F4882352F0BB0F40F4BF2B11F42A
:102BC00060FF04C06F5F7F4F8F4F9F4F089557FD89
:102BD0009058440F551F59F05F3F71F04795880F8B
:102BE00097FB991F61F09F3F79F087950895121622
:102BF00013061406551FF2CF4695F1DF08C01616CE
:102C000017061806991FF1CF86957105610508947E
:102C10000895E894BB2766277727CB0197F9089595
:102C2000F999FECF92BD81BDF89A992780B5089594
:102C3000262FF999FECF1FBA92BD81BD20BD0FB6D8
:102C4000F894FA9AF99A0FBE019608950E946816B0
:102C5000A59F900DB49F900DA49F800D911D1124F0
:102C600008952F923F924F925F926F927F928F9230
:102C70009F92AF92BF92CF92DF92EF92FF920F930B
:102C80001F93CF93DF93CDB7DEB7CA1BDB0B0FB615
:102C9000F894DEBF0FBECDBF09942A8839884888D2
:102CA0005F846E847D848C849B84AA84B984C88468
:102CB000DF80EE80FD800C811B81AA81B981CE0F5F
:102CC000D11D0FB6F894DEBF0FBECDBFED01089544
:102CD000A29FB001B39FC001A39F700D811D11245D
:102CE000911DB29F700D811D1124911D08955058A2
:102CF000BB27AA270E948F160C94D6150E94C815D0
:102D000038F00E94CF1520F039F49F3F19F426F4D3
:102D10000C94C5150EF4E095E7FB0C94BF15E92F54
:102D20000E94E71558F3BA176207730784079507DF
:102D300020F079F4A6F50C9409160EF4E0950B2E0C
:102D4000BA2FA02D0B01B90190010C01CA01A001FD
:102D50001124FF27591B99F0593F50F4503E68F158
:102D60001A16F040A22F232F342F4427585FF3CF99
:102D7000469537952795A795F0405395C9F77EF46A
:102D80001F16BA0B620B730B840BBAF09150A1F0B3
:102D9000FF0FBB1F661F771F881FC2F70EC0BA0F39
:102DA000621F731F841F48F4879577956795B795C1
:102DB000F7959E3F08F0B0CF9395880F08F09927BC
:102DC000EE0F979587950895DF93DD27B92FBF778D
:102DD00040E85FE31616170648075B0718F4D92F7B
:102DE0000E9424189F938F937F936F930E947A1869
:102DF000E8E6F0E00E94B9170E94D6152F913F91A6
:102E00004F915F910E946515DD2351F09058A2EA21
:102E10002AED3FE049EC5FE3D0785D270E948F16F2
:102E2000DF910C94D6150E94E217E3950C940B18D1
:102E30000E942C170C94D6150E94CF1558F00E94B2
:102E4000C81540F029F45F3F29F00C94BF155111CB
:102E50000C940A160C94C5150E94E71568F3992383
:102E6000B1F3552391F3951B550BBB27AA27621786
:102E70007307840738F09F5F5F4F220F331F441F93
:102E8000AA1FA9F335D00E2E3AF0E0E832D09150C7
:102E90005040E695001CCAF72BD0FE2F29D0660FB4
:102EA000771F881FBB1F261737074807AB07B0E8F7
:102EB00009F0BB0B802DBF01FF2793585F4F3AF0FD
:102EC0009E3F510578F00C94BF150C940A165F3F95
:102ED000E4F3983ED4F3869577956795B795F79583
:102EE0009F5FC9F7880F911D9695879597F908956B
:102EF000E1E0660F771F881FBB1F62177307840707
:102F0000BA0720F0621B730B840BBA0BEE1F88F715
:102F1000E09508950E94EF1588F09F5798F0B92F1B
:102F20009927B751B0F0E1F0660F771F881F991FFE
:102F30001AF0BA95C9F714C0B13091F00E94091681
:102F4000B1E008950C940916672F782F8827B85F91
:102F500039F0B93FCCF3869577956795B395D9F756
:102F60003EF490958095709561957F4F8F4F9F4F60
:102F70000895DF93CF931F930F93FF92EF92DF9209
:102F80007B018C01689406C0DA2EEF010E94651562
:102F9000FE01E894A5912591359145915591A6F3AF
:102FA000EF010E948F16FE019701A801DA9469F7DC
:102FB000DF90EF90FF900F911F91CF91DF910895D7
:102FC0000C94C5150E94EF15D8F3E894E0E0BB27F8
:102FD0009F57F0F02AED3FE049EC06C0EE0FBB0F23
:102FE000661F771F881F28F0B23A620773078407AD
:102FF00028F0B25A620B730B840BE3959A9572F723
:10300000803830F49A95BB0F661F771F881FD2F760
:1030100090480C948518EF93E0FF07C0A2EA2AEDD0
:103020003FE049EC5FEB0E948F160E94D6150F908F
:10303000039401FC9058E5E9F0E00C9498180E9484
:103040002E1508F48FEF08959B01AC0160E070E04D
:1030500080E89FE30C9418179F930E94E2170F904B
:1030600007FCEE5F0C940B1819F416F40C94C515BC
:103070000C9483180E94EF15B8F39923C9F3B6F3A3
:103080009F57550B87FF0E9491180024A0E640EA45
:10309000900180585695979528F4805C660F771FAD
:1030A000881F20F026173707480730F4621B730B80
:1030B000840B202931294A2BA695179407942025A3
:1030C00031254A2758F7660F771F881F20F02617EB
:1030D0003707480730F4620B730B840B200D311D4A
:1030E000411DA09581F7B901842F9158880F9695BD
:1030F000879508959B01AC010C9452150E942E15E2
:10310000880B990B08959F3F31F0915020F48795DB
:1031100077956795B795880F911D9695879597F93F
:10312000089591505040660F771F881FD2F7089579
:103130009F938F937F936F93FF93EF939B01AC01CA
:103140000E945215EF91FF910E94B9172F913F9164
:103150004F915F910C945215A1E21A2EAA1BBB1B32
:10316000FD010DC0AA1FBB1FEE1FFF1FA217B30753
:10317000E407F50720F0A21BB30BE40BF50B661F69
:10318000771F881F991F1A9469F76095709580952D
:1031900090959B01AC01BD01CF010895EE0FFF1F7B
:1031A0000590F491E02D0994CF93DF93823091053F
:1031B00010F482E090E0E0917B05F0917C0520E046
:1031C00030E0C0E0D0E0309711F1408151814817E4
:1031D0005907C0F04817590761F4828193812097FD
:1031E00019F09B838A832BC090937C0580937B0589
:1031F00026C02115310519F04217530718F49A011A
:10320000BE01DF01EF010280F381E02DDCCF21154B
:10321000310509F1281B390B2430310590F4129641
:103220008D919C9113976115710521F0FB0193839A
:10323000828304C090937C0580937B05FD013296C8
:1032400044C0FD01E20FF31F819391932250310995
:103250002D933C933AC02091790530917A05232B28
:1032600041F4209104013091050130937A052093B7
:10327000790520910201309103012115310541F4B6
:103280002DB73EB74091060150910701241B350B25
:10329000E0917905F0917A05E217F307A0F42E1B6F
:1032A0003F0B2817390778F0AC014E5F5F4F2417AA
:1032B000350748F04E0F5F1F50937A05409379050C
:1032C0008193919302C0E0E0F0E0CF01DF91CF91D4
:1032D00008950F931F93CF93DF93009709F48CC049
:1032E000FC0132971382128200917B0510917C05BC
:1032F0000115110581F420813181820F931F2091E6
:10330000790530917A052817390779F5F0937A0510
:10331000E093790571C0D80140E050E0AE17BF07D7
:1033200050F412962D913C911397AD012115310562
:1033300009F1D901F3CF9D01DA0133832283608142
:103340007181860F971F8217930769F4EC0128811A
:103350003981260F371F2E5F3F4F318320838A81AB
:103360009B8193838283452B29F4F0937C05E09322
:103370007B0542C01396FC93EE931297ED014991A1
:1033800059919E01240F351FE217F30771F48081D4
:103390009181840F951F029611969C938E93828142
:1033A000938113969C938E931297E0E0F0E0D801FE
:1033B00012968D919C911397009719F0F8018C014A
:1033C000F6CF8D919C9198012E5F3F4F820F931FF6
:1033D0002091790530917A052817390769F43097DB
:1033E00029F410927C0510927B0502C01382128290
:1033F00010937A0500937905DF91CF911F910F917A
:103400000895A0E0B0E0E7E0FAE10C943516EC0195
:10341000009721F4CB010E94D418B8C0FC01E60F3C
:10342000F71F9C0122503109E217F30708F4ACC0E2
:10343000D9010D911C91119706171707B0F00530AF
:10344000110508F49FC0C80104978617970708F470
:1034500099C002501109061B170B019311936D932C
:103460007C93CF010E9469198DC05B01A01AB10A3B
:103470004C01800E911EA0917B05B0917C0540E02F
:1034800050E0E12CF12C109709F44AC0A815B905B9
:10349000D1F56D907C901197630182E0C80ED11C2C
:1034A000CA14DB0480F1A3014A195B096A0182E0B6
:1034B000C80ED11C1296BC9012971396AC91B5E031
:1034C000CB16D10440F0B282A38351834083D9014B
:1034D0006D937C930AC00E5F1F4FC301800F911F35
:1034E000F90191838083EB2DFA2FE114F10431F07F
:1034F000D7011396FC93EE93129744C0F0937C058A
:10350000E0937B053FC08D919C9111974817590717
:1035100008F4AC017D0112960D90BC91A02DB3CFA3
:103520008091790590917A0588159905E1F44617FF
:103530005707C8F48091020190910301009741F46C
:103540008DB79EB74091060150910701841B950BE2
:10355000E817F907C8F4F0937A05E0937905F901C3
:10356000718360830FC0CB010E94D4187C01009747
:1035700059F0A801BE010E94CB1ACE010E94691920
:10358000C70104C0CE0102C080E090E0CDB7DEB735
:10359000EEE00C945116FB01DC0102C001900D928B
:1035A00041505040D8F70895FB01DC0101900D9285
:1035B0000020E1F70895FB0151915523A9F0BF01C7
:1035C000DC014D9145174111E1F759F4CD0101900E
:1035D000002049F04D9140154111C9F3FB01411103
:1035E000EFCF81E090E00197089511E0C3E6D1E0CC
:1035F00004C0FE010E94CE182196C436D107C9F737
:04360000F894FFCF6C
:10360400FF0300007D0580000900030080808080A6
:10361400801F1F00000080808080801F1F0000002A
:103624000025028E01BD016C02EE01CC01E00150C7
:103634006C6561736520656E7465722074686520BD
:103644006E6F7463682076616C75652E00557064C6
:10365400617465206E6F7463682076616C75657340
:103664003A00303A204E6F7274682058203A200095
:10367400313A204E6F7274682059203A2000323A51
:1036840020536F7574682058203A2000333A205331
:103694006F7574682059203A2000343A20576573B6
:1036A400742058203A2000353A2057657374205905
:1036B400203A2000363A20456173742058203A207D
:1036C40000373A20456173742059203A2000383A73
:1036D40020536F757468776573742058203A2000FE
:1036E400393A20536F757468776573742059203A9A
:1036F4002000413A20536F757468656173742058D3
:10370400203A2000423A20536F75746865617374DF
:103714002059203A2000433A204578697400456EC8
:1037240061626C65640044697361626C6564005431
:103734006F67676C65206D6F64733A00303A206D73
:1037440061785F766563746F7273203A2000313A52
:1037540020706572666563745F616E676C65732063
:103764003A2000323A20736869656C645F64726F52
:10377400705F657870616E64203A2000333A20648B
:103784006173685F6261636B203A2000343A20649D
:103794006F6C7068696E5F666978203A2000353A0C
:1037A400204578697400436F6E666967206D656EA5
:1037B400753A00303A20456E61626C652F44697336
:1037C40061626C65204D6F647300313A20557064FA
:1037D400617465206E6F7463682076616C756573BF
:1037E40000747275650066616C73650047434356E7
:1037F40065726966790032004861782D5761746397
:1038040068696E6754696D6500222C226D616A6F68
:10381400725F76657273696F6E223A002C226D694D
:103824006E6F725F76657273696F6E223A002C2236
:103834006D6F6473223A5B007B226E616D65223A80
:10384400226D61785F766563746F7273222C2265D2
:103854006E61626C6564223A002C2276616C756537
:1038640073223A5B007B226E616D65223A22706599
:1038740072666563745F616E676C6573222C226582
:103884006E61626C6564223A007B226E616D652212
:103894003A22736869656C645F64726F705F6578FF
:1038A40070616E64222C22656E61626C6564223ADA
:1038B400007B226E616D65223A22646173685F62E7
:1038C40061636B222C22656E61626C6564223A002E
:1038D4007B226E616D65223A22646F6C7068696E3A
:1038E4005F666978222C22656E61626C6564223A97
:1038F40000456E74657220616E797468696E672024
:10390400746F2061636365737320636F6E666967A8
:10391400206D656E75000D0A006E616E00696E663D
:06392400006F7666000052
:00000001FF
